:020000040800F2
:1000000000000120250B0008750B0008750B000887
:10001000750B0008750B0008750B00080000000048
:10002000000000000000000000000000750B000848
:10003000750B000800000000750B0008750B000828
:1000400000000000750B0008750B0008750B000818
:10005000750B0008750B0008750B0008750B000880
:10006000750B0008750B0008750B000800000000F8
:100070000000000000000000000000000000000080
:100080000000000000000000B909000800000000A6
:10009000000000000000000000000000750B0008D8
:1000A000750B0008750B0008750B0008750B000830
:1000B000750B0008750B000800000000750B0008A8
:1000C000750B0008750B0008750B0008750B000810
:1000D000750B000800000000000000000000000098
:1000E000750B0008750B0008750B00080000000078
:1000F0000000000000000000000000000000000000
:1001000000000000750B000800000000750B0008DF
:1001100000000000000000000000000000000000DF
:1001200000000000000000000000000000000000CF
:1001300000000000000000000000000000000000BF
:10014000000000000000000000000000750B000827
:10015000000000000000000000000000000000009F
:10016000750B0008750B000800000000000000007F
:10017000000000000000000000000000000000007F
:1001800000000000750B00080000000000000000E7
:04019000750B0008E3
:1001940010B5054C237833B9044B13B10448AFF3BD
:1001A40000800123237010BD2C04002000000000F7
:1001B400980D000808B5034B1BB103490348AFF37E
:1001C400008008BD0000000030040020980D0008E5
:1001D40080B582B000AF002301220821154800F049
:1001E40037FA002301220921124800F031FA0023D2
:1001F40001220A210F4800F02BFA00237B6009E05A
:100204007B68D9B2002301220A4800F021FA7B68F6
:1002140001337B607B68072BF2DD382000F00CF89B
:100224000C2000F009F8012000F006F800BF0837A0
:10023400BD4680BD0004024080B588B000AF0346CF
:10024400FB7100220921334800F021FB0022082120
:10025400304800F01CFB0023FB6102E0FB69013322
:10026400FB61FB6941F287329342F7DD0023BB61F6
:1002740002E0BB690133BB61BB6941F2873293423F
:10028400F7DD01220A21234800F001FB00237B61F2
:1002940002E07B6901337B617B6941F287329342DF
:1002A400F7DD00233B6112E03B69D9B201223B69CF
:1002B40002FA03F35AB297F9073013405BB2DBB288
:1002C4001A46144800F0E3FA3B6901333B613B6989
:1002D400072BE9DD0023FB6002E0FB680133FB60D0
:1002E400FB6841F287329342F7DD00220A21094874
:1002F40000F0CDFA0023BB6002E0BB680133BB60B1
:10030400BB6841F287329342F7DD00BF2037BD4618
:1003140080BD00BF0004024080B588B000AF034632
:10032400FB71002209212D4800F0B1FA01220821B5
:100334002A4800F0ACFA0023FB6102E0FB690133B8
:10034400FB61FB6941F287329342F7DD01220A2106
:10035400224800F09CFA0023BB6102E0BB69013330
:10036400BB61BB6941F287329342F7DD00237B61B5
:1003740012E07B69D9B201227B6902FA03F35AB213
:1003840097F9073013405BB2DBB21A46134800F00A
:100394007EFA7B6901337B617B69072BE9DD0023EE
:1003A4003B6102E03B6901333B613B6941F28732C7
:1003B4009342F7DD00220A21084800F068FA00237E
:1003C400FB6002E0FB680133FB60FB6841F28732AB
:1003D4009342F7DD00BF2037BD4680BD00040240D4
:1003E40080B584B000AF78600023FB7309E0FB7B29
:1003F4007A6813441B781846FFF78EFFFB7B0133A2
:10040400FB73FB7B7A6813441B78002BEFD100BF8E
:100414001037BD4680BD80B586B000AF78607B687C
:1004240007F108010A22184600F0E4FB07F108036B
:100434001846FFF7D5FF00BF1837BD4680BD80B50D
:1004440000AF0120FFF7F8FE00BF80BD80B483B089
:1004540000AF78604B4B1B6B4A4A43F001031363B4
:10046400494B1B68484A43F001031360464B1B6821
:10047400454A43F002031360434BDB68424A23F0CE
:100484000103D360404BDB683F4A23F00203D3608F
:100494003C4B5B6C3B4A43F4807353643B4B9B681B
:1004A4003A4A43F001039360394B5B68384A23F4BA
:1004B40040335360354B9B68344A23F400639360A4
:1004C4007B681B78032B3FD801A252F823F000BFAE
:1004D400E5040008FF0400081905000833050008B6
:1004E4002A4B5B68294A23F080735360274B5B686F
:1004F400264A23F00073536026E0244B5B68234AAA
:1005040043F080735360214B5B68204A23F00073EF
:10051400536019E01D4B5B681C4A23F080735360E1
:100524001A4B5B68194A43F0007353600CE0174B95
:100534005B68164A43F080735360144B5B68134A3C
:1005440043F00073536000BF7B685B78002B06D0D8
:100554000E4B9B680D4A43F00203936005E00B4B7E
:100564009B680A4A23F002039360084B5B68074ABE
:1005740023F02003536000BF0C37BD465DF8047BB5
:10058400704700BF003802400000024000200140D4
:100594000023014080B400AF054B9B68044A43F03C
:1005A4008043936000BFBD465DF8047B704700BF85
:1005B4000020014080B483B000AF7860094B1B6811
:1005C40003F00203022B03D17B6801221A7002E0BC
:1005D4007B6800221A7000BF0C37BD465DF8047BAF
:1005E400704700BF0020014080B584B000AF786040
:1005F4000023FB7307F10F031846FFF7DBFFFB7BB8
:10060400002B19D00F4BDB6C07EE903AB8EE677AEB
:10061400DFED0D6AC7EE267AB0EE087A67EE877AC8
:100624009FED0A7A67EE877AFDEEE77A17EE902A55
:100634007B681A60002300E0012318461037BD468A
:1006440080BD00BF0020014000F4BF4500001643F8
:1006540080B582B000AF7860084611461A4603465A
:10066400FB700B46BB7013467B707B68404A934219
:1006740006D1404B1B6B3F4A43F00103136335E043
:100684007B683D4A934206D13A4B1B6B394A43F08F
:10069400020313632AE07B68384A934206D1354B40
:1006A4001B6B344A43F0040313631FE07B68344A32
:1006B400934206D12F4B1B6B2E4A43F0080313635E
:1006C40014E07B682F4A934206D12A4B1B6B294ABC
:1006D40043F01003136309E07B682B4A934205D16E
:1006E400244B1B6B234A43F080031363BB78002B1A
:1006F4001CD07B681A68FB785B00012101FA03F3C4
:100704001A437B681A607B681A68FB785B000133C4
:10071400012101FA03F3DB431A407B681A607A78FB
:10072400FB781946786800F031F81CE07B681A6899
:10073400FB785B00012101FA03F3DB431A407B6879
:100744001A607B681A68FB785B000133012101FAA7
:1007540003F3DB431A407B681A607A78FB78194606
:10076400786800F04EF800BF0837BD4680BD00BF72
:100774000000024000380240000402400008024029
:10078400000C024000100240001C024080B483B000
:1007940000AF78600B46FB701346BB707B681A6829
:1007A400FB785B00012101FA03F31340002B21D0F5
:1007B4007B681A68FB785B000133012101FA03F3BB
:1007C4001340002B16D1BB78002B02D0BB78012B31
:1007D4000ED17B685A68FB78012101FA03F3DB43ED
:1007E4001340B978FA7801FA02F21A437B685A6026
:1007F400012300E0002318460C37BD465DF8047B56
:10080400704780B483B000AF78600B46FB7013462A
:10081400BB707B681A68FB785B00012101FA03F363
:100824001340002B2CD17B681A68FB785B000133E2
:10083400012101FA03F31340002B21D1BB78002BD3
:1008440005D0BB78012B02D0BB78022B16D17B6874
:10085400DA68FB785B0001219940FB785B00013387
:10086400012000FA03F30B43DB431340B978FA7811
:10087400520001FA02F21A437B68DA60012300E0B5
:10088400002318460C37BD465DF8047B704780B4DE
:1008940083B000AF78600B46FB701346BB707B6877
:1008A4001A68FB785B00012101FA03F31340002B63
:1008B40018D0BB78002B09D07B685A69FB780121DA
:1008C40001FA03F31A437B685A6109E07B685A69A9
:1008D400FB78012101FA03F3DB431A407B685A6178
:1008E400012300E0002318460C37BD465DF8047B65
:1008F4007047000080B584B000AF0023FB6002E0C5
:10090400FB680133FB60FB68184A9342F8DD00235F
:100914003B7001237B70FFF75BFC3B461846FFF7F7
:1009240095FDFFF737FE7B78012B1AD10023BB60BE
:1009340002E0BB680133BB60BB680D4A9342F8DD3B
:10094400FFF77DFD0B48FFF74BFD0B48FFF74CFE0F
:10095400094B1B681846FFF75EFD0848FFF740FD8A
:10096400E4E7002318461037BD4680BD7F8D5B0049
:10097400BF270900B00D000848040020C00D00087E
:1009840080B500AFFFF75BFD0748FFF729FD074877
:10099400FFF72AFE054B1B681846FFF73CFD044889
:1009A400FFF71EFD00BF80BDB00D00084804002005
:1009B400C00D000880B500AFFFF7E2FF00BF80BDA7
:1009C40080B500AF164BD3F88830154A43F4700352
:1009D400C2F88830134B1B68124A43F001031360BA
:1009E400104B00229A600F4B1B680E4A23F084734D
:1009F40023F4803313600B4B0B4A5A60094B1B687A
:100A0400084A23F480231360064B0022DA6000F0C6
:100A14000DF8034B4FF000629A6000BF80BD00BF29
:100A240000ED00E0003802401030002480B483B0B0
:100A340000AF00237B6000233B60354B1B68344AC6
:100A440043F480331360324B1B6803F400333B6080
:100A54007B6801337B603B68002B03D17B68B3F573
:100A6400A04FF0D12A4B1B6803F40033002B02D0B3
:100A740001233B6001E000233B603B68012B40D134
:100A8400234B1B6C224A43F080531364214B1B6895
:100A9400204A43F4404313601D4B1D4A9B689360F6
:100AA4001B4B1B4A9B689360194B9B68184A43F481
:100AB40080539360164B184A5A60154B1B68144AAE
:100AC40043F08073136000BF114B1B6803F0007385
:100AD400002BF9D0114B40F202721A600C4B9B6848
:100AE4000B4A23F003039360094B9B68084A43F0C5
:100AF4000203936000BF064B9B6803F00C03082BB2
:100B0400F9D100BF0C37BD465DF8047B704700BFC8
:100B1400003802400070004019544107003C024074
:100B24000D4885460D480E490E4A002302E0D4586C
:100B3400C4500433C4188C42F9D30B4A0B4C002321
:100B440001E013600432A242FBD3FFF739FF00F047
:100B540011F8FFF7CFFEFEE700000120000000209F
:100B64002C040020FC0D00082C040020700400203C
:100B7400FEE7000070B50D4E0D4D761BB61006D085
:100B84000024013455F8043B9847A642F9D1094E94
:100B9400094D761B00F0FEF8B61006D0002401348F
:100BA40055F8043B9847A642F9D170BDF00D0008F2
:100BB400F00D0008F80D0008F00D0008931E222B1C
:100BC40015D80A2A10B50B4605D00C46194600F074
:100BD40013F8204610BD0028F7DA2D2403F8014B42
:100BE40040420C46194600F007F8204610BD00208C
:100BF40008707047FFF7E2BFF0B4DFF878C017461B
:100C040004460E46BCE80F008AB06D460FC5BCE82A
:100C14000F000FC59CE80300BB1E45F8040B222BF4
:100C2400297023D8751E2846002200E01A46B4FB1A
:100C3400F7F10AAB07FB114423440C4613F8283C94
:100C440000F8013F531C0029F0D1F15452B1334450
:100C540013F8011D15F8010F29700134111B8C4282
:100C64001870F5DB30460AB0F0BC704700203070D5
:100C7400F9E700BFC80D0008024B13B1024800F0A9
:100C840005B87047000000009D0C000800230146D1
:100C94001A46184600F01EB838B50A4C0A4D641BB3
:100CA400A4100AD004F18043013B05EB8305013C09
:100CB40055F804399847002CF9D1BDE8384000F0C4
:100CC4006FB800BFFC0D0008F80D0008704700BFA6
:100CD400704700BF2DE9F8432B4D06462868984617
:100CE4000F469146FFF7F2FF284B1C68D4F84831B1
:100CF400002B3DD05A681F2A0DDC02F1010C16BBF3
:100D04000232C3F804C0286843F82270FFF7E0FFFA
:100D14000020BDE8F8831E4B7BB34FF4C870AFF3DB
:100D24000080034648B3D4F848210021C0E90021DB
:100D34004FF0010CC4F848010A46C0F88811C0F805
:100D44008C11002EDCD003EB82010124C1F88890C1
:100D5400D3F8880194402043022EC3F88801C1F8D7
:100D64000881CDD1D3F88C110C43C3F88C41C7E76B
:100D740004F5A673C4F84831BCE72868FFF7A8FF58
:100D84004FF0FF30C5E700BF28040020C40D000861
:100D940000000000F8B500BFF8BC08BC9E467047D0
:0C0DA400F8B500BFF8BC08BC9E467047C4
:100DB00054656D70657261747572653A000000006B
:100DC0004300000000000020303132333435363724
:100DD00038396162636465666768696A6B6C6D6EF9
:100DE0006F707172737475767778797A000000008D
:080DF0007D0C0008B9010008A8
:040DF8009501000859
:100DFC0000000000EC02002054030020BC03002083
:100E0C0000000000000000000000000000000000D6
:100E1C0000000000000000000000000000000000C6
:100E2C0000000000000000000000000000000000B6
:100E3C0000000000000000000000000000000000A6
:100E4C000000000000000000000000000000000096
:100E5C000000000000000000000000000000000086
:100E6C000000000000000000000000000000000076
:100E7C000000000000000000000000000000000066
:100E8C000000000000000000000000000000000056
:100E9C000000000000000000010000000000000045
:100EAC000E33CDAB34126DE6ECDE05000B0000000A
:100EBC000000000000000000000000000000000026
:100ECC000000000000000000000000000000000016
:100EDC000000000000000000000000000000000006
:100EEC0000000000000000000000000000000000F6
:0C121C0000000000000000004C04002056
:0400000508000B25BF
:00000001FF
