:020000040800F2
:10000000000001204108000891080008910800083C
:1000100091080008910800089108000800000000FD
:10002000000000000000000000000000910800082F
:1000300091080008000000009108000891080008DD
:1000400000000000910800089108000891080008CD
:100050009108000891080008A5060008D5060008C8
:1000600091080008910800089108000800000000AD
:100070000000000000000000000000000000000080
:1000800000000000000000009108000800000000CF
:1000900000000000000000000000000091080008BF
:1000A00091080008910800089108000891080008CC
:1000B000910800089108000800000000910800085D
:1000C00091080008910800089108000891080008AC
:1000D000910800080000000000000000000000007F
:1000E000910800089108000891080008000000002D
:1000F0000000000000000000000000000000000000
:1001000000000000910800080000000091080008AD
:1001100000000000000000000000000000000000DF
:1001200000000000000000000000000000000000CF
:1001300000000000000000000000000000000000BF
:10014000000000000000000000000000910800080E
:10015000000000000000000000000000000000009F
:10016000910800089108000800000000000000004D
:10017000000000000000000000000000000000007F
:1001800000000000910800080000000000000000CE
:0401900091080008CA
:1001940010B5054C237833B9044B13B10448AFF3BD
:1001A40000800123237010BD2C04002000000000F7
:1001B400F809000808B5034B1BB103490348AFF322
:1001C400008008BD0000000030040020F809000889
:1001D40080B483B000AF7860084611461A460346DF
:1001E400FB700B46BB7013467B70204B1A6B7B78FD
:1001F400012101FA03F31D4913430B63BB78002B60
:1002040016D07B681A68FB785B00012101FA03F3BE
:100214001A437B681A607B681A68FB785B000133B9
:10022400012101FA03F3DB431A407B681A6016E0EC
:100234007B681A68FB785B00012101FA03F3DB4356
:100244001A407B681A607B681A68FB785B0001338C
:10025400012101FA03F3DB431A407B681A6000BFF3
:100264000C37BD465DF8047B704700BF0038024080
:1002740080B483B000AF78600B46FB701346BB704C
:100284007B681A68FB785B00012101FA03F31340D1
:10029400002B18D0BB78002B09D07B685A69FB78F7
:1002A400012101FA03F31A437B685A6109E07B6870
:1002B4005A69FB78012101FA03F3DB431A407B6896
:1002C4005A61002300E0012318460C37BD465DF84F
:1002D400047B704780B483B000AF78600B46FB703A
:1002E4001346BB70BB78002B16D07B68DA68FB78AA
:1002F4005B00012101FA03F31A437B68DA607B682F
:10030400DA68FB785B000133012101FA03F3DB4374
:100314001A407B68DA6015E07B68DA68FB785B007A
:10032400012101FA03F3DB431A407B68DA607B683E
:10033400DA68FB785B000133012101FA03F31A4305
:100344007B68DA6000BF0C37BD465DF8047B7047FC
:1003540080B500AF012300220021B648FFF738FF23
:10036400012300220121B348FFF732FF01220021BB
:10037400B048FFF7AFFF01220121AE48FFF7AAFF03
:10038400002301220021AC48FFF722FF00230122B1
:100394000121A948FFF71CFF002301220221A648DE
:1003A400FFF716FF002301220321A348FFF710FFE4
:1003B400A24B5B6CA14A43F480435364A04B9B68FB
:1003C4009F4A43F0010393609D4B9B689C4A23F032
:1003D400020393609A4B9B68994A23F00403936049
:1003E400974B9B68964A23F008039360944B9B6851
:1003F400934A43F010039360914B9B68904A23F017
:10040400200393608E4B9B688D4A23F040039360D6
:100414008B4B9B688A4A23F080039360894B1B684B
:10042400884A43F001031360864B1B68854A43F0F6
:1004340002031360834BDB68824A43F00103D360F9
:10044400804BDB687F4A43F00203D3607E4B1B681A
:100454007D4A43F0400313607B4B1B687A4A43F0A8
:1004640080031360794B1968794B83FB01239A103D
:10047400CB17D21A13469B0013445B00CA1A734B62
:100484001A60724B1B68092BECD801A252F823F0B6
:10049400BD040008E7040008110500083B05000836
:1004A400650500088F050008B9050008E305000884
:1004B4000D06000859060008002200215E48FFF7D7
:1004C400D7FE002201215C48FFF7D2FE0022022160
:1004D4005948FFF7CDFE002203215748FFF7C8FE15
:1004E400CDE0012200215448FFF7C2FE0022012181
:1004F4005148FFF7BDFE002202214F48FFF7B8FE26
:10050400002203214C48FFF7B3FEB8E0002200218B
:100514004948FFF7ADFE012201214748FFF7A8FE35
:10052400002202214448FFF7A3FE0022032142488F
:10053400FFF79EFEA3E0012200213F48FFF798FE4B
:10054400012201213C48FFF793FE002202213A4890
:10055400FFF78EFE002203213748FFF789FE8EE065
:10056400002200213448FFF783FE00220121324893
:10057400FFF77EFE012202212F48FFF779FE0022B9
:1005840003212D48FFF774FE79E0012200212A4857
:10059400FFF76EFE002201212748FFF769FE0122C2
:1005A40002212548FFF764FE002203212248FFF7B9
:1005B4005FFE64E0002200211F48FFF759FE01227C
:1005C40001211D48FFF754FE012202211A48FFF7BA
:1005D4004FFE002203211848FFF74AFE4FE0012294
:1005E40000211548FFF744FE012201211248FFF7BC
:1005F4003FFE012202211048FFF73AFE00220321A8
:100604000D48FFF735FE3AE0002200210A48FFF7C3
:100614002FFE002201210848FFF72AFE00220221B2
:100624000548FFF725FE012203210348FFF720FEBA
:1006340025E000BF000402400000024000380240F0
:1006440000380140003C014000E100E04804002083
:1006540067666666012200210948FFF709FE002249
:1006640001210748FFF704FE002202210448FFF796
:10067400FFFD012203210248FFF7FAFD00BFF1E666
:100684000000024080B400AF044B1B680133034AEE
:10069400136000BFBD465DF8047B7047480400202A
:1006A40080B500AFFFF7EEFF00BF80BD80B400AFA0
:1006B400064B1B68002B04DD044B1B68013B034AFB
:1006C400136000BFBD465DF8047B704748040020FA
:1006D40080B500AFFFF7EAFF00BF80BD80B500AF73
:1006E400164BD3F88830154A43F47003C2F88830A7
:1006F400134B1B68124A43F001031360104B002292
:100704009A600F4B1B680E4A23F0847323F48033E2
:1007140013600B4B0B4A5A60094B1B68084A23F4BD
:1007240080231360064B0022DA6000F00DF8034BBF
:100734004FF000629A6000BF80BD00BF00ED00E092
:10074400003802401030002480B483B000AF00238E
:100754007B6000233B60354B1B68344A43F4803391
:100764001360324B1B6803F400333B607B68013336
:100774007B603B68002B03D17B68B3F5A04FF0D1BD
:100784002A4B1B6803F40033002B02D001233B6087
:1007940001E000233B603B68012B40D1234B1B6CE1
:1007A400224A43F080531364214B1B68204A43F4CC
:1007B400404313601D4B1D4A9B6893601B4B1B4AAF
:1007C4009B689360194B9B68184A43F48053936069
:1007D400164B184A5A60154B1B68144A43F0807331
:1007E400136000BF114B1B6803F00073002BF9D09A
:1007F400114B40F202721A600C4B9B680B4A23F0B7
:1008040003039360094B9B68084A43F00203936017
:1008140000BF064B9B6803F00C03082BF9D100BF03
:100824000C37BD465DF8047B704700BF00380240BA
:100834000070004019544107003C02400D488546B1
:100844000D480E490E4A002302E0D458C450043324
:10085400C4188C42F9D30B4A0B4C002301E01360FB
:100864000432A242FBD3FFF739FF00F011F8FFF77F
:100874006FFDFEE700000120000000202C04002092
:10088400200A00082C04002070040020FEE7000069
:1008940070B50D4E0D4D761BB61006D000240134F4
:1008A40055F8043B9847A642F9D1094E094D761BE9
:1008B40000F0A0F8B61006D00024013455F8043B2B
:1008C4009847A642F9D170BD140A0008140A00081A
:1008D4001C0A0008140A0008024B13B1024800F075
:1008E40005B8704700000000FD0800080023014619
:1008F4001A46184600F01EB838B50A4C0A4D641B57
:10090400A4100AD004F18043013B05EB8305013CAC
:1009140055F804399847002CF9D1BDE8384000F067
:100924006FB800BF200A00081C0A0008704700BF07
:10093400704700BF2DE9F8432B4D064628689846BA
:100944000F469146FFF7F2FF284B1C68D4F8483154
:10095400002B3DD05A681F2A0DDC02F1010C16BB96
:100964000232C3F804C0286843F82270FFF7E0FF9E
:100974000020BDE8F8831E4B7BB34FF4C870AFF37F
:100984000080034648B3D4F848210021C0E900217F
:100994004FF0010CC4F848010A46C0F88811C0F8A9
:1009A4008C11002EDCD003EB82010124C1F8889065
:1009B400D3F8880194402043022EC3F88801C1F87B
:1009C4000881CDD1D3F88C110C43C3F88C41C7E70F
:1009D40004F5A673C4F84831BCE72868FFF7A8FFFC
:1009E4004FF0FF30C5E700BF28040020100A0008BC
:1009F40000000000F8B500BFF8BC08BC9E46704774
:0C0A0400F8B500BFF8BC08BC9E46704767
:040A100000000020C2
:080A1400DD080008B90100082B
:040A1C009501000838
:100A200000000000EC02002054030020BC03002062
:100A300000000000000000000000000000000000B6
:100A400000000000000000000000000000000000A6
:100A50000000000000000000000000000000000096
:100A60000000000000000000000000000000000086
:100A70000000000000000000000000000000000076
:100A80000000000000000000000000000000000066
:100A90000000000000000000000000000000000056
:100AA0000000000000000000000000000000000046
:100AB0000000000000000000000000000000000036
:100AC0000000000000000000010000000000000025
:100AD0000E33CDAB34126DE6ECDE05000B000000EA
:100AE0000000000000000000000000000000000006
:100AF00000000000000000000000000000000000F6
:100B000000000000000000000000000000000000E5
:100B100000000000000000000000000000000000D5
:0C0E400000000000000000004C04002036
:0400000508000841A6
:00000001FF
