:020000040800F2
:10000000000001205D080008AD080008AD080008E8
:10001000AD080008AD080008AD08000800000000A9
:10002000000000000000000000000000AD08000813
:10003000AD08000800000000AD080008AD08000889
:1000400000000000AD080008AD080008AD08000879
:10005000AD080008AD080008AD080008AD080008AC
:10006000AD080008AD080008AD0800080000000059
:100070000000000000000000000000000000000080
:100080000000000000000000AD08000800000000B3
:10009000000000000000000000000000AD080008A3
:1000A000AD080008AD080008AD080008AD0800085C
:1000B000AD080008AD08000800000000AD08000809
:1000C000AD080008AD080008AD080008AD0800083C
:1000D000AD08000800000000000000000000000063
:1000E000AD080008AD080008AD08000800000000D9
:1000F0000000000000000000000000000000000000
:1001000000000000AD08000800000000AD08000875
:1001100000000000000000000000000000000000DF
:1001200000000000000000000000000000000000CF
:1001300000000000000000000000000000000000BF
:10014000000000000000000000000000AD080008F2
:10015000000000000000000000000000000000009F
:10016000AD080008AD080008000000000000000015
:10017000000000000000000000000000000000007F
:1001800000000000AD0800080000000000000000B2
:04019000AD080008AE
:1001940010B5054C237833B9044B13B10448AFF3BD
:1001A40000800123237010BD7C04002000000000A7
:1001B400140A000808B5034B1BB103490348AFF305
:1001C400008008BD0000000080040020140A00081C
:1001D40080B483B000AF7860084611461A460346DF
:1001E400FB700B46BB7013467B70204B1A6B7B78FD
:1001F400012101FA03F31D4913430B63BB78002B60
:1002040016D07B681A68FB785B00012101FA03F3BE
:100214001A437B681A607B681A68FB785B000133B9
:10022400012101FA03F3DB431A407B681A6016E0EC
:100234007B681A68FB785B00012101FA03F3DB4356
:100244001A407B681A607B681A68FB785B0001338C
:10025400012101FA03F3DB431A407B681A6000BFF3
:100264000C37BD465DF8047B704700BF0038024080
:1002740080B483B000AF78600B46FB701346BB704C
:100284007B681A68FB785B00012101FA03F31340D1
:10029400002B18D0BB78002B09D07B685A69FB78F7
:1002A400012101FA03F31A437B685A6109E07B6870
:1002B4005A69FB78012101FA03F3DB431A407B6896
:1002C4005A61002300E0012318460C37BD465DF84F
:1002D400047B704780B483B000AF78600B46FB703A
:1002E4007B681A69FB78012101FA03F31340002BA0
:1002F40001D0012300E0002318460C37BD465DF809
:10030400047B704780B483B000AF78600B46FB7009
:100314001346BB70BB78002B16D07B68DA68FB7879
:100324005B00012101FA03F31A437B68DA607B68FE
:10033400DA68FB785B000133012101FA03F3DB4344
:100344001A407B68DA6015E07B68DA68FB785B004A
:10035400012101FA03F3DB431A407B68DA607B680E
:10036400DA68FB785B000133012101FA03F31A43D5
:100374007B68DA6000BF0C37BD465DF8047B7047CC
:1003840080B584B000AF0023FB600CE0214AFB6819
:1003940052F82330D9B2002301221F48FFF718FF77
:1003A400FB680133FB600422FB689342EEDB00230D
:1003B400BB6016E0194ABB6852F82330D9B2002357
:1003C40000221548FFF704FF144ABB6852F8233093
:1003D400DBB2002219461048FFF794FFBB680133D3
:1003E400BB600322BB689342E4DB00237B6009E02B
:1003F4007B68D9B2012301220948FFF7E9FE7B6833
:1004040001337B607B68032BF2DD00BF1037BD46F0
:1004140080BD00BF0000002000000240100000204A
:100424000004024080B582B000AF00237B6046E048
:10043400274A7B6852F82330DBB20122194625484B
:10044400FFF716FF00233B6028E0234A3B6852F87D
:100454002330DBB219461F48FFF73CFF0346002B4D
:1004640019D01E497A6813465B0013443A68134452
:1004740051F823301A4A136000BF174A3B6852F8F8
:100484002330DBB219461348FFF724FF0346002B41
:10049400F3D100F027F83B6801333B6003223B684B
:1004A4009342D2DB0A4A7B6852F82330DBB2002243
:1004B40019460848FFF7DCFE7B6801337B600422A1
:1004C4007B689342B4DB00BF0837BD4680BD00BFE4
:1004D4000000002000000240100000201C0000204A
:1004E4009804002080B500AF774B1B68092B00F2FD
:1004F400E98001A252F823F0250500084F05000801
:1005040079050008A3050008CD050008F7050008D3
:10051400210600084B060008750600089F0600081F
:10052400002200216948FFF7A3FE00220121674849
:10053400FFF79EFE002202216448FFF799FE002285
:1005440003216248FFF794FEBCE0012200215F48CA
:10055400FFF78EFE002201215C48FFF789FE00228E
:1005640002215A48FFF784FE002203215748FFF76F
:100574007FFEA7E0002200215448FFF779FE012204
:1005840001215248FFF774FE002202214F48FFF771
:100594006FFE002203214D48FFF76AFE92E001221C
:1005A40000214A48FFF764FE012201214748FFF772
:1005B4005FFE002202214548FFF75AFE0022032174
:1005C4004248FFF755FE7DE0002200213F48FFF737
:1005D4004FFE002201213D48FFF74AFE012202217D
:1005E4003A48FFF745FE002203213848FFF740FE52
:1005F40068E0012200213548FFF73AFE002201217C
:100604003248FFF735FE012202213048FFF730FE61
:10061400002203212D48FFF72BFE53E00022002186
:100624002A48FFF725FE012201212848FFF720FE72
:10063400012202212548FFF71BFE00220321234843
:10064400FFF716FE3EE0012200212048FFF710FECE
:10065400012201211D48FFF70BFE012202211B4844
:10066400FFF706FE002203211848FFF701FE29E0E8
:10067400002200211548FFF7FBFD00220121134849
:10068400FFF7F6FD002202211048FFF7F1FD0122D9
:1006940003210E48FFF7ECFD14E0012200210B4872
:1006A400FFF7E6FD002201210848FFF7E1FD0022E3
:1006B40002210648FFF7DCFD012203210348FFF76E
:1006C400D7FD00BF00BF80BD980400200004024095
:1006D40080B582B000AFFFF753FE00237B6002E0D9
:1006E4007B6801337B607B684CF24F329342F7DDC9
:1006F400FFF798FEF1E7000080B500AF164BD3F882
:100704008830154A43F47003C2F88830134B1B68D1
:10071400124A43F001031360104B00229A600F4BFE
:100724001B680E4A23F0847323F4803313600B4B4D
:100734000B4A5A60094B1B68084A23F48023136050
:10074400064B0022DA6000F00DF8034B4FF0006214
:100754009A6000BF80BD00BF00ED00E00038024099
:100764001030002480B483B000AF00237B600023EA
:100774003B60354B1B68344A43F480331360324B7F
:100784001B6803F400333B607B6801337B603B6888
:10079400002B03D17B68B3F5A04FF0D12A4B1B6823
:1007A40003F40033002B02D001233B6001E000235B
:1007B4003B603B68012B40D1234B1B6C224A43F026
:1007C40080531364214B1B68204A43F44043136055
:1007D4001D4B1D4A9B6893601B4B1B4A9B6893608F
:1007E400194B9B68184A43F480539360164B184A7C
:1007F4005A60154B1B68144A43F08073136000BFA2
:10080400114B1B6803F00073002BF9D0114B40F21D
:1008140002721A600C4B9B680B4A23F0030393602B
:10082400094B9B68084A43F00203936000BF064BE0
:100834009B6803F00C03082BF9D100BF0C37BD46AD
:100844005DF8047B704700BF003802400070004030
:1008540019544107003C02400D4885460D480E4995
:100864000E4A002302E0D458C4500433C4188C4206
:10087400F9D30B4A0B4C002301E013600432A2426B
:10088400FBD3FFF739FF00F011F8FFF721FFFEE774
:1008940000000120000000207C0400203C0A000825
:1008A4007C040020C0040020FEE7000070B50D4E5B
:1008B4000D4D761BB61006D00024013455F8043BC8
:1008C4009847A642F9D1094E094D761B00F0A0F8CD
:1008D400B61006D00024013455F8043B9847A642CC
:1008E400F9D170BD300A0008300A0008380A00083F
:1008F400300A0008024B13B1024800F005B87047F3
:100904000000000019090008002301461A46184691
:1009140000F01EB838B50A4C0A4D641BA4100AD066
:1009240004F18043013B05EB8305013C55F8043990
:100934009847002CF9D1BDE8384000F06FB800BFEB
:100944003C0A0008380A0008704700BF704700BF1F
:100954002DE9F8432B4D0646286898460F469146E4
:10096400FFF7F2FF284B1C68D4F84831002B3DD028
:100974005A681F2A0DDC02F1010C16BB0232C3F8BF
:1009840004C0286843F82270FFF7E0FF0020BDE8A8
:10099400F8831E4B7BB34FF4C870AFF3008003465B
:1009A40048B3D4F848210021C0E900214FF0010CDC
:1009B400C4F848010A46C0F88811C0F88C11002E0A
:1009C400DCD003EB82010124C1F88890D3F88801BC
:1009D40094402043022EC3F88801C1F80881CDD188
:1009E400D3F88C110C43C3F88C41C7E704F5A67304
:1009F400C4F84831BCE72868FFF7A8FF4FF0FF3080
:100A0400C5E700BF780400202C0A0008000000009D
:100A1400F8B500BFF8BC08BC9E467047F8B500BFE7
:080A2400F8BC08BC9E467047B7
:040A2C005000002056
:080A3000F9080008B9010008F3
:040A3800950100081C
:100A3C0001000000020000000300000004000000A0
:100A4C000500000006000000070000000100000087
:100A5C00020000000300000004000000050000007C
:100A6C00060000000700000008000000090000005C
:100A7C002A0000000000000023000000000000001D
:100A8C00000000003C030020A40300200C04002004
:100A9C00000000000000000000000000000000004A
:100AAC00000000000000000000000000000000003A
:100ABC00000000000000000000000000000000002A
:100ACC00000000000000000000000000000000001A
:100ADC00000000000000000000000000000000000A
:100AEC0000000000000000000000000000000000FA
:100AFC0000000000000000000000000000000000EA
:100B0C0000000000000000000000000000000000D9
:100B1C0000000000000000000000000000000000C9
:100B2C0000000000000000000100000000000000B8
:100B3C000E33CDAB34126DE6ECDE05000B0000007D
:100B4C000000000000000000000000000000000099
:100B5C000000000000000000000000000000000089
:100B6C000000000000000000000000000000000079
:100B7C000000000000000000000000000000000069
:0C0EAC0000000000000000009C0400207A
:040000050800085D8A
:00000001FF
